:020000040800F2
:10000000A8040020890100088D0100088F01000864
:10001000910100089301000895010008000000000C
:100020000000000000000000000000009701000830
:1000300099010008000000009B010008E904000885
:100040009F0100089F0100089F0100089F01000810
:100050009F0100089F0100089F0100089F01000800
:100060009F0100089F0100089F0100089F010008F0
:100070009F0100089F0100089F0100089F010008E0
:100080009F0100089F0100089F0100089F010008D0
:100090009F0100089F0100089F0100089F010008C0
:1000A0009F0100089F0100089F0100089F010008B0
:1000B000FB0400089F0100089F0100089F01000841
:1000C0009F0100089F0100089F0100089F01000890
:1000D0009F0100089F0100089F0100089F01000880
:1000E0009F0100089F0100089F01000800F002F82E
:1000F00000F03AF80AA090E8000C82448344AAF188
:100100000107DA4501D100F02FF8AFF2090EBAE885
:100110000F0013F0010F18BFFB1A43F0010318473B
:100120004005000060050000103A24BF78C878C17F
:10013000FAD8520724BF30C830C144BF04680C60ED
:10014000704700000023002400250026103A28BF35
:1001500078C1FBD8520728BF30C148BF0B60704739
:100160001FB51FBD10B510BD00F03FFA1146FFF7D7
:10017000F7FF00F0E9F900F05DFA03B4FFF7F2FFD2
:1001800003BC00F065FA000008480047FEE7FEE700
:10019000FEE7FEE7FEE7FEE7FEE7FEE7FEE7FEE737
:1001A00003480449024A044B70470000ED00000870
:1001B000A8000020A8040020A80000201220AE49BA
:1001C00008607047AD48AE494860AE48086000BF5F
:1001D000AB48006800F400300028F9D000BFA84800
:1001E000006800F000700028F9D000BFA448406803
:1001F00000F00C000828F9D17047704745F25550BF
:10020000A14908600220486040F69F7088604AF665
:10021000AA2008604CF6CC400860704770479848A8
:10022000C06940F080509649C8619848006840F421
:100230008070964908609248006A40F00100904939
:10024000086200BF8E48006A00F002000028F9D062
:100250008B48006A40F40140894908628C48008854
:1002600040F010008A4908800020091D088047F6E8
:10027000FF70091D08800020854914310880091D80
:100280000880091D08803C20091D08800120804944
:10029000091F08807F48006840F008004FF0E02107
:1002A000C1F800017A48008820F0100078490880E1
:1002B00000BF7748008800F020000028F9D073487C
:1002C000006820F480707149086070476C4880694C
:1002D00040F400606A49886140F21B206E49088042
:1002E0004CF24F30091D08800220091D08800020B3
:1002F000694928390880091D0880012066491C3990
:1003000008806448006840F000704FF0E021C1F8B8
:10031000000161482838008840F001005E49283912
:10032000088070475648806940F00400544988614D
:100330005A485B4908600020091D086050488069E0
:1003400040F008004E4988614FF44010554908605C
:100350005548091D08604A48806940F01000484926
:1003600088610020514908604FF480004860704760
:100370004F48406820F004004D494860404880697B
:1003800040F004003E4988614548001D006820F4A3
:100390007F604349091D08600846006840F0B000CE
:1003A00008600846006840F480600860344880694E
:1003B00040F48040324988614EF21B603D4908801C
:1003C0000020091D0880091D0880081F0088091FDA
:1003D0000880002037490C3108803648001D00880D
:1003E00040F00C003349091D08800846008840F49D
:1003F000005008807047704770472148C06940F03E
:1004000000601F49C8610846C06940F08050C8615B
:100410001E48006840F480701C490860002026498E
:100420000880091D08800846008840F00300088005
:100430001648006820F48070144908601E48001DAA
:10044000008800F0040038B11248006840F0040051
:100450004FF0E021C1F80001704700B5FFF7AEFE94
:10046000FFF7B0FEFFF732FFFFF75CFFFFF780FFFB
:1004700000BD1248704700000020024002841D00A9
:100480000010024082000101003000400070004076
:100490000428004000E100E0282C0140040BB3BB1D
:1004A00000080140000C014000404444001001409D
:1004B0000000014008380140306C004080F93703EB
:1004C0003F48006870473F49086000BF3D490968E0
:1004D0000029FBD170473B48006820B139480068CB
:1004E000401E38490860704700B5FFF7F4FF3448F4
:1004F0000068401C3249086000BD4FF08040008A0F
:1005000000F00100F8B14FF08040008A20F00100B7
:100510004FF0804108822C480068401C2A4908603E
:100520000846006829490968884202D10020284904
:10053000086025480068642805D100202249086029
:100540002020234908607047FFF787FF07204FF0FE
:10055000E02108614FF43470486101201D49C861F1
:100560000420886101208107888108804FF44010B1
:1005700017490C3908604820C10608856420888521
:1005800088101549086000BFFFF79AFF13490860FB
:100590000846006812490968401AB0F57A7FF3D915
:1005A0000E4800680E49086008480068401C07496A
:1005B0000860084600686428E6D100200860E3E788
:1005C0000000002034000020040000203000002043
:1005D0000C0801400010024000E100E0380000205B
:1005E0003C000020704770477047754600F02CF8BB
:1005F000AE4605006946534620F00700854618B010
:1006000020B5FFF7CDFDBDE820404FF000064FF0CC
:1006100000074FF000084FF0000B21F00701AC4637
:10062000ACE8C009ACE8C009ACE8C009ACE8C00956
:100630008D46704710B50446AFF300802046BDE8F4
:100640001040FFF79ABD00000048704744000020AA
:1006500001491820ABBEFEE72600020070470000EB
:100660008006000800000020440000002801000867
:10067000C40600084400002064040000440100088F
:10068000000000000000000000000000000000006A
:10069000000000000000000000000000000000005A
:1006A000000000000000000000000000000000004A
:1006B000000000000000000000000000000000003A
:0406C0000000000036
:04000005080000ED02
:00000001FF
