:020000040800F2
:10000000A0040020890100088D0100088F0100086C
:10001000910100089301000895010008000000000C
:100020000000000000000000000000009701000830
:1000300099010008000000009B010008E904000885
:100040009F0100089F0100089F0100089F01000810
:100050009F0100089F0100089F0100089F01000800
:100060009F0100089F0100089F0100089F010008F0
:100070009F0100089F0100089F0100089F010008E0
:100080009F0100089F0100089F0100089F010008D0
:100090009F0100089F0100089F0100089F010008C0
:1000A0009F0100089F0100089F0100089F010008B0
:1000B0009F0100089F0100089F0100089F010008A0
:1000C0009F0100089F0100089F0100089F01000890
:1000D0009F0100089F0100089F0100089F01000880
:1000E0009F0100089F0100089F01000800F002F82E
:1000F00000F03AF80AA090E8000C82448344AAF188
:100100000107DA4501D100F02FF8AFF2090EBAE885
:100110000F0013F0010F18BFFB1A43F0010318473B
:10012000C0050000E0050000103A24BF78C878C17F
:10013000FAD8520724BF30C830C144BF04680C60ED
:10014000704700000023002400250026103A28BF35
:1001500078C1FBD8520728BF30C148BF0B60704739
:100160001FB51FBD10B510BD00F07FFA1146FFF797
:10017000F7FF00F010FA00F09DFA03B4FFF7F2FF6A
:1001800003BC00F0A5FA000008480047FEE7FEE7C0
:10019000FEE7FEE7FEE7FEE7FEE7FEE7FEE7FEE737
:1001A00003480449024A044B70470000ED00000870
:1001B000A0000020A0040020A00000201220AE49D2
:1001C00008607047AD48AE494860AE48086000BF5F
:1001D000AB48006800F400300028F9D000BFA84800
:1001E000006800F000700028F9D000BFA448406803
:1001F00000F00C000828F9D17047704745F25550BF
:10020000A14908600220486040F69F7088604AF665
:10021000AA2008604CF6CC400860704770479848A8
:10022000C06940F080509649C8619848006840F421
:100230008070964908609248006A40F00100904939
:10024000086200BF8E48006A00F002000028F9D062
:100250008B48006A40F40140894908628C48008854
:1002600040F010008A4908800020091D088047F6E8
:10027000FF70091D08800020854914310880091D80
:100280000880091D08803C20091D08800120804944
:10029000091F08807F48006840F008004FF0E02107
:1002A000C1F800017A48008820F0100078490880E1
:1002B00000BF7748008800F020000028F9D073487C
:1002C000006820F480707149086070476C4880694C
:1002D00040F400606A49886140F21B206E49088042
:1002E0004CF24F30091D08800220091D08800020B3
:1002F000694928390880091D0880012066491C3990
:1003000008806448006840F000704FF0E021C1F8B8
:10031000000161482838008840F001005E49283912
:10032000088070475648806940F00400544988614D
:100330005A485B4908600020091D086050488069E0
:1003400040F008004E4988614FF44010554908605C
:100350005548091D08604A48806940F01000484926
:1003600088610020514908604FF480004860704760
:100370004F48406820F004004D494860404880697B
:1003800040F004003E4988614548001D006820F4A3
:100390007F604349091D08600846006840F0B000CE
:1003A00008600846006840F480600860344880694E
:1003B00040F48040324988614EF21B603D4908801C
:1003C0000020091D0880091D0880081F0088091FDA
:1003D0000880002037490C3108803648001D00880D
:1003E00040F00C003349091D08800846008840F49D
:1003F000005008807047704770472148C06940F03E
:1004000000601F49C8610846C06940F08050C8615B
:100410001E48006840F480701C490860002026498E
:100420000880091D08800846008840F00300088005
:100430001648006820F48070144908601E48001DAA
:10044000008800F0040038B11248006840F0040051
:100450004FF0E021C1F80001704700B5FFF7AEFE94
:10046000FFF7B0FEFFF732FFFFF75CFFFFF780FFFB
:1004700000BD1248704700000020024002841D00A9
:100480000010024082000101003000400070004076
:100490000428004000E100E0282C0140040BB3BB1D
:1004A00000080140000C014000404444001001409D
:1004B0000000014008380140306C004080F93703EB
:1004C0006148006870476149086000BF5F4909687A
:1004D0000029FBD170475D48006820B15B48006887
:1004E000401E5A490860704700B5FFF7F4FF5648B0
:1004F0000068401C5449086000BD00B50420544900
:10050000C8600520FFF7DFFF00205149C86000BD2B
:1005100000B502464F48828100BF4E48008900F076
:1005200002000028F9D00520FFF7CDFFFFF7E5FF17
:1005300000BD00B503460020FFF7EAFFD8B2FFF781
:10054000E7FFD9B241F00400FFF7E2FFD8B2FFF7AE
:10055000DFFF0120FFF7DCFF0520FFF7B4FF00BD40
:1005600000B503460120FFF7D3FFD9B241F00100E7
:10057000FFF7CEFFD9B241F00500FFF7C9FFD9B2AE
:1005800041F00100FFF7C4FF0120FFF7C1FF052084
:10059000FFF799FF00BDFFF760FF01202E49C861FA
:1005A00041F2140088614FF0333029490860072078
:1005B0004FF0E02108614FF4347048614FF08050F3
:1005C000264908604FF45F702249088002200881A4
:1005D0006420FFF778FF3020FFF7ABFF3020FFF7F4
:1005E000A8FF3020FFF7A5FF2020FFF7A2FF202063
:1005F000FFF79FFF8020FFF79CFF0020FFF799FF88
:100600006020FFF796FF0020FFF793FFC020FFF761
:1006100090FF8020FFF78DFF0020FFF78AFF00206A
:10062000FFF787FF1020FFF784FF0520FFF74BFF40
:1006300000BF3020FFF794FF1020FFF791FF08481C
:10064000FFF741FFF5E70000000000203000002028
:1006500000100140003001400010024000E100E0C5
:10066000A0860100704770477047754600F02CF86F
:10067000AE4605006946534620F00700854618B08F
:1006800020B5FFF78DFDBDE820404FF000064FF08C
:1006900000074FF000084FF0000B21F00701AC46B7
:1006A000ACE8C009ACE8C009ACE8C009ACE8C009D6
:1006B0008D46704710B50446AFF300802046BDE874
:1006C0001040FFF75ABD000000487047400000206E
:1006D00001491820ABBEFEE726000200704700006B
:1006E000000700080000002040000000280100086A
:1006F000400700084000002060040000440100089A
:1007000000000000000000000000000000000000E9
:1007100000000000000000000000000000000000D9
:1007200000000000000000000000000000000000C9
:1007300000000000000000000000000000000000B9
:04000005080000ED02
:00000001FF
