:020000040800F2
:10000000D0040020C9030008870600087F06000806
:10001000830600084F040008B9090008000000002A
:100020000000000000000000000000002907000898
:100030005304000800000000890600088108000839
:10004000E3030008E3030008E3030008E3030008F8
:10005000E3030008E3030008E3030008E3030008E8
:10006000E3030008E3030008E3030008E3030008D8
:10007000E3030008E3030008E3030008E3030008C8
:10008000E3030008E3030008E3030008E3030008B8
:10009000E3030008E3030008E3030008E3030008A8
:1000A000E3030008E3030008E3030008E303000898
:1000B000F9080008E3030008E3030008E30300086D
:1000C000E3030008E3030008E3030008E303000878
:1000D000E3030008E3030008E3030008E303000868
:1000E00055040008E3030008E3030008DFF80CD020
:1000F00000F07CF900480047310A0008D0040020D5
:100100002DE9FE4F81EA030404F0004421F0004190
:1001100000944FF0000B23F0004350EA01045ED03E
:1001200052EA03045BD0C3F30A54C1F30A552C44CA
:10013000A4F2F3340194A0FB0254C1F3130141F47F
:100140008011C3F3130343F4801301FB024400FB4B
:10015000034E840A970A44EA815447EA8357A4FB72
:10016000076802958D0A05FB07854FEA932C04FB6F
:100170000C542705029D4FEA065847EA1637B5EB9F
:1001800008056EEB070C870E920E47EA811742EACC
:100190008312A7FB0201B6EB0B0164EB00042B0DED
:1001A00043EA0C335E1844EB1C50DA465146E7FB39
:1001B0000201C5F313044FEA0B3343EA14534FEA29
:1001C0000432019C43EA0603A4F10C040294009C4F
:1001D000CDE900B400F0A9F803B0BDE8F08F00202D
:1001E0000146F9E72DE9F04D81EA030404F0004BE4
:1001F00021F0004514464FF0000A23F0004150EA78
:10020000050220D054EA01021DD0C5F30A57024668
:10021000C5F31303C1F31300C1F30A5640F480156C
:1002200043F48013A7EB0608101BD64608F2FD38EE
:1002300073EB050002D308F1010801E092185B415D
:10024000B8F1000F03DA00200146BDE8F08D002070
:100250004FF48011064684460EE0171B73EB05072A
:1002600005D3121B63EB050306434CEA010C490856
:100270004FEA300092185B4150EA0107EDD152EA93
:10028000030012D082EA040083EA0501084305D086
:10029000101BAB4106D20122002306E000224FF0E2
:1002A000004302E06FF0010253101AEB06004CEB22
:1002B000085110EB0A0041EB0B01BDE8F04D00F0D6
:1002C00025B80EB540F2334102910021CDE900116D
:1002D0000A460B4600F029F803B000BD30B5041EF5
:1002E00071F1000404DB4FF00044404264EB010173
:1002F000141E73F1000405DB1C464FF0004352420C
:1003000063EB04038B4208BF824230BD10B5141E5C
:1003100073F1000408DA401C41F1000192185B41BE
:100320001A4301D120F0010010BD2DE9F04D924695
:100330009B4611B1B1FA81F202E0B0FA80F22032AC
:10034000904600F065F804460F4640EA0A0041EA8C
:100350000B0153465A46084313D0114653EA010095
:1003600019D0C8F14002504600F061F805460E462B
:1003700050465946424600F04BF8084305D001204C
:1003800004E020463946BDE8F08D0020054346EAEA
:10039000E0762C4337430A986305E40AA0EB080093
:1003A0000022FD0A44EA47540A3002D500200146E3
:1003B000E9E7010510196941DDE9084500196941BE
:1003C000BDE8F04DA2E70000064880470648004718
:1003D000FEE7FEE7FEE7FEE7FEE7FEE7FEE7FEE7F5
:1003E000FEE7FEE799080008ED000008064C074DFF
:1003F00006E0E06840F0010394E8070098471034F5
:10040000AC42F6D3FFF776FE5C0A00087C0A0008CF
:10041000202A04DB203A00FA02F1002070479140C4
:10042000C2F1200320FA03F3194390407047202AB9
:1004300004DB203A21FA02F00021704721FA02F38E
:10044000D040C2F12002914008431946704700BFD6
:10045000FEE770472DE9F0472048006800F480600F
:10046000002838D01E48006800F4806020B100F0F9
:10047000EFFA1C4908602AE000F0EAFA1A4908601D
:100480000968184A1268881AFFF71BFF0646174AC0
:10049000174BFFF735FE04460022164BFFF730FEE0
:1004A000804600224FF08043FFF79CFE124A03C2B1
:1004B0000022124B104903C9FFF710FF04D242F289
:1004C00010700F49086002E000200D4908604FF4E9
:1004D000806002490860BDE8F08700001404014014
:1004E0000808014050000020540000209CC420B0A7
:1004F0007268A13F00002440480000200000144022
:100500005800002010B54FF4806013490880032084
:1005100088701820C870114800F026F84FF4006069
:100520000D490880032088700420C8700B4800F033
:100530001BF8802008490880032088701020C870AC
:10054000074800F011F80120034908800020C87016
:10055000044800F009F810BD00000020000C014024
:1005600000080140001001402DE9F041024600253D
:100570000026002000230024002791F803C00CF07F
:100580000F0591F803C00CF0100CBCF1000F03D064
:1005900091F802C04CEA050591F800C0BCF1000FCB
:1005A00031D0146800202BE04FF0010C0CFA00F35E
:1005B000B1F800C00CEA03069E4220D183004FF040
:1005C0000F0C0CFA03F7BC4305FA03FC4CEA0404D5
:1005D00091F803C0BCF1280F06D14FF0010C0CFAC2
:1005E00000FCC2F814C00AE091F803C0BCF1480F47
:1005F00005D14FF0010C0CFA00FCC2F810C0401CF1
:100600000828D1D31460B1F800C0BCF1FF0F34DD6D
:10061000546800202EE000F1080C4FF0010808FAA1
:100620000CF3B1F800C00CEA03069E4221D183000E
:100630004FF00F0C0CFA03F7BC4305FA03FC4CEA2D
:10064000040491F803C0BCF1280F05D100F1080C97
:1006500008FA0CF8C2F8148091F803C0BCF1480FF6
:1006600007D100F1080C4FF0010808FA0CF8C2F8A5
:100670001080401C0828CED35460BDE8F08100BF34
:10068000FEE700BFFEE770477047000029B1064A49
:1006900052690243044B5A6104E0034A526982439F
:1006A000014B5A61704700000010024029B1064A10
:1006B000D2690243044BDA6104E0034AD2698243FF
:1006C000014BDA61704700000010024029B1064A70
:1006D00092690243044B9A6104E0034A926982439F
:1006E000014B9A61704700000010024010B50121D3
:1006F0000846FFF7DBFF0121C802FFF7E7FF0121F2
:100700000846FFF7E3FF01210820FFF7DFFF012183
:100710000846FFF7BBFF01214802FFF7D7FF012181
:100720008804FFF7C3FF10BD7047000030B51648BE
:100730000068164AB0FBF2F1B1F1807F01D30120CD
:100740001DE021F07F40401E4FF0E0225061501725
:100750000F22002807DA13071D0E0D4B00F00F04BF
:10076000241F1D5503E013071C0E0A4B1C5400BF29
:1007700000204FF0E022906107201061002008B1B6
:1007800000BFFEE730BD00005C000020A086010035
:1007900018ED00E000E400E010B500F001F810BD35
:1007A0000CB50020019000903348006840F4803080
:1007B0003149086000BF3048006800F40030009004
:1007C0000198401C0190009818B90198B0F5A06FED
:1007D000F1D12948006800F4003010B101200090E8
:1007E00001E0002000900098012843D123480068D0
:1007F00040F01000214908600846006820F003001E
:1008000008600846006840F0020008601A48406826
:10081000194948600846406848600846406840F406
:10082000806048600846406820F47C1048600846B4
:10083000406840F4E81048600846006840F0807066
:10084000086000BF0C48006800F000700028F9D074
:100850000948406820F0030007494860084640689E
:1008600040F00200486000BF0348406800F00C0000
:100870000828F9D10CBD0000001002400020024001
:1008800000B504480068401C0249086000F062F8A6
:1008900000BD00003C00002010B51348006840F087
:1008A00001001149086008464068104908400E4997
:1008B0004860084600680E4908400B490860084631
:1008C000006820F4802008600846406820F4FE009C
:1008D00048604FF41F008860FFF75EFF4FF0006034
:1008E0000449086010BD0000001002400000FFF83D
:1008F000FFFFF6FE08ED00E04FF08040008A00F0B8
:100900000100F8B11048006888B11048006808B9C3
:10091000012000E000200D49086018B180200C493A
:10092000086007E080200A49091F086002E0802073
:10093000074908604FF08040008A20F001004FF026
:1009400080410882704700004400002040000020E1
:10095000140801400448006820B103480068401EA4
:10096000014908607047000038000020024600205E
:10097000B1F5007F00D100BF13880B400BB10120FF
:1009800000E000207047000042F20C000849088097
:1009900040F6A660091F08804FF41650054908600C
:1009A00000208880C880088188810C204881704799
:1009B0000C480040C000002000BFFEE7014A024989
:1009C00000F013B80D0A00087000002002E008C80B
:1009D000121F08C1002AFAD170477047002001E0B9
:1009E00001C1121F002AFBD170472DE9F0411646C4
:1009F0000F460446002503E03946B047641C6D1CD1
:100A000020780028F8D12846BDE8F08170B504466A
:100A10000D4600BF40210548FFF7A8FF0028F9D088
:100A2000E0B20249091D088070BD00000048004086
:100A3000FFF75CFEFFF77AFEFFF764FDFFF7A4FF08
:100A400002E002A0FFF7BAFFFBE700003100000060
:100A500001480068704700003C0000207C0A000844
:100A60000000002074000000CC090008F00A000813
:100A7000740000205C040000DC0900080000000095
:100A80000000000000000000000000000000000066
:100A90000000000000000000000000000000000056
:100AA0000000000000000000000000000000000046
:100AB0000000000000000000000000000000000036
:100AC0000100000000000000000000000000000025
:100AD000000000000000000000A24A040000000026
:100AE00000000000010203040607080900000000DE
:04000005080003C923
:00000001FF
